{
  "contractName": "BloodDonation",
  "abi": [
    {
      "inputs": [],
      "payable": false,
      "stateMutability": "nonpayable",
      "type": "constructor"
    },
    {
      "anonymous": false,
      "inputs": [
        {
          "indexed": false,
          "internalType": "uint256",
          "name": "postId",
          "type": "uint256"
        },
        {
          "indexed": false,
          "internalType": "string",
          "name": "actionType",
          "type": "string"
        },
        {
          "indexed": false,
          "internalType": "enum BloodDonation.Available",
          "name": "available",
          "type": "uint8"
        },
        {
          "indexed": true,
          "internalType": "address",
          "name": "executor",
          "type": "address"
        },
        {
          "indexed": false,
          "internalType": "uint256",
          "name": "created",
          "type": "uint256"
        }
      ],
      "name": "Action",
      "type": "event"
    },
    {
      "anonymous": false,
      "inputs": [
        {
          "indexed": false,
          "internalType": "uint256",
          "name": "postId",
          "type": "uint256"
        },
        {
          "indexed": true,
          "internalType": "address",
          "name": "executor",
          "type": "address"
        },
        {
          "indexed": false,
          "internalType": "uint256",
          "name": "created",
          "type": "uint256"
        }
      ],
      "name": "UpdateDonarRequestId",
      "type": "event"
    },
    {
      "anonymous": false,
      "inputs": [
        {
          "indexed": false,
          "internalType": "uint256",
          "name": "postId",
          "type": "uint256"
        },
        {
          "indexed": true,
          "internalType": "address",
          "name": "executor",
          "type": "address"
        },
        {
          "indexed": false,
          "internalType": "uint256",
          "name": "created",
          "type": "uint256"
        }
      ],
      "name": "UpdateDonarStatus",
      "type": "event"
    },
    {
      "anonymous": false,
      "inputs": [
        {
          "indexed": false,
          "internalType": "uint256",
          "name": "postId",
          "type": "uint256"
        },
        {
          "indexed": true,
          "internalType": "address",
          "name": "executor",
          "type": "address"
        },
        {
          "indexed": false,
          "internalType": "uint256",
          "name": "created",
          "type": "uint256"
        }
      ],
      "name": "UpdateDonarValue",
      "type": "event"
    },
    {
      "anonymous": false,
      "inputs": [
        {
          "indexed": false,
          "internalType": "uint256",
          "name": "postId",
          "type": "uint256"
        },
        {
          "indexed": true,
          "internalType": "address",
          "name": "executor",
          "type": "address"
        },
        {
          "indexed": false,
          "internalType": "uint256",
          "name": "created",
          "type": "uint256"
        }
      ],
      "name": "UpdateRequestStatus",
      "type": "event"
    },
    {
      "anonymous": false,
      "inputs": [
        {
          "indexed": false,
          "internalType": "uint256",
          "name": "postId",
          "type": "uint256"
        },
        {
          "indexed": false,
          "internalType": "string",
          "name": "actionType",
          "type": "string"
        },
        {
          "indexed": false,
          "internalType": "enum BloodDonation.Available",
          "name": "available",
          "type": "uint8"
        },
        {
          "indexed": true,
          "internalType": "address",
          "name": "executor",
          "type": "address"
        },
        {
          "indexed": false,
          "internalType": "uint256",
          "name": "created",
          "type": "uint256"
        }
      ],
      "name": "createRequest",
      "type": "event"
    },
    {
      "constant": true,
      "inputs": [
        {
          "internalType": "uint256",
          "name": "",
          "type": "uint256"
        }
      ],
      "name": "RequestOf",
      "outputs": [
        {
          "internalType": "address",
          "name": "",
          "type": "address"
        }
      ],
      "payable": false,
      "stateMutability": "view",
      "type": "function"
    },
    {
      "constant": true,
      "inputs": [
        {
          "internalType": "address",
          "name": "",
          "type": "address"
        }
      ],
      "name": "RequestPost",
      "outputs": [
        {
          "internalType": "uint256",
          "name": "",
          "type": "uint256"
        }
      ],
      "payable": false,
      "stateMutability": "view",
      "type": "function"
    },
    {
      "constant": true,
      "inputs": [],
      "name": "activeDonarCounter",
      "outputs": [
        {
          "internalType": "uint256",
          "name": "",
          "type": "uint256"
        }
      ],
      "payable": false,
      "stateMutability": "view",
      "type": "function"
    },
    {
      "constant": true,
      "inputs": [],
      "name": "activeRequestCounter",
      "outputs": [
        {
          "internalType": "uint256",
          "name": "",
          "type": "uint256"
        }
      ],
      "payable": false,
      "stateMutability": "view",
      "type": "function"
    },
    {
      "constant": true,
      "inputs": [
        {
          "internalType": "uint256",
          "name": "",
          "type": "uint256"
        }
      ],
      "name": "donarOf",
      "outputs": [
        {
          "internalType": "address",
          "name": "",
          "type": "address"
        }
      ],
      "payable": false,
      "stateMutability": "view",
      "type": "function"
    },
    {
      "constant": true,
      "inputs": [
        {
          "internalType": "address",
          "name": "",
          "type": "address"
        }
      ],
      "name": "donarPost",
      "outputs": [
        {
          "internalType": "uint256",
          "name": "",
          "type": "uint256"
        }
      ],
      "payable": false,
      "stateMutability": "view",
      "type": "function"
    },
    {
      "constant": true,
      "inputs": [],
      "name": "inactiveDonarCounter",
      "outputs": [
        {
          "internalType": "uint256",
          "name": "",
          "type": "uint256"
        }
      ],
      "payable": false,
      "stateMutability": "view",
      "type": "function"
    },
    {
      "constant": true,
      "inputs": [],
      "name": "inactiveRequestCounter",
      "outputs": [
        {
          "internalType": "uint256",
          "name": "",
          "type": "uint256"
        }
      ],
      "payable": false,
      "stateMutability": "view",
      "type": "function"
    },
    {
      "constant": true,
      "inputs": [],
      "name": "owner",
      "outputs": [
        {
          "internalType": "address",
          "name": "",
          "type": "address"
        }
      ],
      "payable": false,
      "stateMutability": "view",
      "type": "function"
    },
    {
      "constant": true,
      "inputs": [],
      "name": "getLastUserPostId",
      "outputs": [
        {
          "internalType": "uint256",
          "name": "",
          "type": "uint256"
        }
      ],
      "payable": false,
      "stateMutability": "view",
      "type": "function"
    },
    {
      "constant": false,
      "inputs": [
        {
          "internalType": "string[]",
          "name": "data",
          "type": "string[]"
        }
      ],
      "name": "createDonar",
      "outputs": [
        {
          "internalType": "bool",
          "name": "",
          "type": "bool"
        }
      ],
      "payable": false,
      "stateMutability": "nonpayable",
      "type": "function"
    },
    {
      "constant": false,
      "inputs": [
        {
          "internalType": "uint256",
          "name": "Id",
          "type": "uint256"
        }
      ],
      "name": "updateDonarStatus",
      "outputs": [
        {
          "internalType": "bool",
          "name": "",
          "type": "bool"
        }
      ],
      "payable": false,
      "stateMutability": "nonpayable",
      "type": "function"
    },
    {
      "constant": false,
      "inputs": [
        {
          "internalType": "string[]",
          "name": "data",
          "type": "string[]"
        },
        {
          "internalType": "uint256",
          "name": "RequestId",
          "type": "uint256"
        }
      ],
      "name": "updateDonarRequestStatus",
      "outputs": [
        {
          "internalType": "bool",
          "name": "",
          "type": "bool"
        }
      ],
      "payable": false,
      "stateMutability": "nonpayable",
      "type": "function"
    },
    {
      "constant": true,
      "inputs": [],
      "name": "getAllActiveDonars",
      "outputs": [
        {
          "components": [
            {
              "internalType": "uint256",
              "name": "Id",
              "type": "uint256"
            },
            {
              "internalType": "string",
              "name": "name",
              "type": "string"
            },
            {
              "internalType": "string",
              "name": "age",
              "type": "string"
            },
            {
              "internalType": "string",
              "name": "gender",
              "type": "string"
            },
            {
              "internalType": "string",
              "name": "contactinformation",
              "type": "string"
            },
            {
              "internalType": "string",
              "name": "location",
              "type": "string"
            },
            {
              "internalType": "string",
              "name": "country",
              "type": "string"
            },
            {
              "internalType": "string",
              "name": "city",
              "type": "string"
            },
            {
              "internalType": "string",
              "name": "bloodGroup",
              "type": "string"
            },
            {
              "internalType": "uint256",
              "name": "requestId",
              "type": "uint256"
            },
            {
              "internalType": "address",
              "name": "author",
              "type": "address"
            },
            {
              "internalType": "enum BloodDonation.Available",
              "name": "available",
              "type": "uint8"
            },
            {
              "internalType": "uint256",
              "name": "created",
              "type": "uint256"
            },
            {
              "internalType": "uint256",
              "name": "updated",
              "type": "uint256"
            }
          ],
          "internalType": "struct BloodDonation.DonarStruct[]",
          "name": "",
          "type": "tuple[]"
        }
      ],
      "payable": false,
      "stateMutability": "view",
      "type": "function"
    },
    {
      "constant": true,
      "inputs": [],
      "name": "getAllUserActiveDonars",
      "outputs": [
        {
          "components": [
            {
              "internalType": "uint256",
              "name": "Id",
              "type": "uint256"
            },
            {
              "internalType": "string",
              "name": "name",
              "type": "string"
            },
            {
              "internalType": "string",
              "name": "age",
              "type": "string"
            },
            {
              "internalType": "string",
              "name": "gender",
              "type": "string"
            },
            {
              "internalType": "string",
              "name": "contactinformation",
              "type": "string"
            },
            {
              "internalType": "string",
              "name": "location",
              "type": "string"
            },
            {
              "internalType": "string",
              "name": "country",
              "type": "string"
            },
            {
              "internalType": "string",
              "name": "city",
              "type": "string"
            },
            {
              "internalType": "string",
              "name": "bloodGroup",
              "type": "string"
            },
            {
              "internalType": "uint256",
              "name": "requestId",
              "type": "uint256"
            },
            {
              "internalType": "address",
              "name": "author",
              "type": "address"
            },
            {
              "internalType": "enum BloodDonation.Available",
              "name": "available",
              "type": "uint8"
            },
            {
              "internalType": "uint256",
              "name": "created",
              "type": "uint256"
            },
            {
              "internalType": "uint256",
              "name": "updated",
              "type": "uint256"
            }
          ],
          "internalType": "struct BloodDonation.DonarStruct[]",
          "name": "",
          "type": "tuple[]"
        }
      ],
      "payable": false,
      "stateMutability": "view",
      "type": "function"
    },
    {
      "constant": false,
      "inputs": [
        {
          "internalType": "string[]",
          "name": "data",
          "type": "string[]"
        }
      ],
      "name": "createBloodRequest",
      "outputs": [
        {
          "internalType": "bool",
          "name": "",
          "type": "bool"
        }
      ],
      "payable": false,
      "stateMutability": "nonpayable",
      "type": "function"
    },
    {
      "constant": false,
      "inputs": [
        {
          "internalType": "uint256",
          "name": "Id",
          "type": "uint256"
        }
      ],
      "name": "updateRequestStatus",
      "outputs": [
        {
          "internalType": "bool",
          "name": "",
          "type": "bool"
        }
      ],
      "payable": false,
      "stateMutability": "nonpayable",
      "type": "function"
    },
    {
      "constant": true,
      "inputs": [],
      "name": "getAllBloodRequest",
      "outputs": [
        {
          "components": [
            {
              "internalType": "uint256",
              "name": "Id",
              "type": "uint256"
            },
            {
              "internalType": "string",
              "name": "Name",
              "type": "string"
            },
            {
              "internalType": "string",
              "name": "location",
              "type": "string"
            },
            {
              "internalType": "string",
              "name": "contactInformation",
              "type": "string"
            },
            {
              "internalType": "string",
              "name": "Country",
              "type": "string"
            },
            {
              "internalType": "string",
              "name": "City",
              "type": "string"
            },
            {
              "internalType": "string",
              "name": "BloodRequired",
              "type": "string"
            },
            {
              "internalType": "string",
              "name": "Notes",
              "type": "string"
            },
            {
              "internalType": "enum BloodDonation.Available",
              "name": "available",
              "type": "uint8"
            },
            {
              "internalType": "address",
              "name": "author",
              "type": "address"
            },
            {
              "internalType": "uint256",
              "name": "created",
              "type": "uint256"
            },
            {
              "internalType": "uint256",
              "name": "updated",
              "type": "uint256"
            }
          ],
          "internalType": "struct BloodDonation.RequestStruct[]",
          "name": "",
          "type": "tuple[]"
        }
      ],
      "payable": false,
      "stateMutability": "view",
      "type": "function"
    },
    {
      "constant": true,
      "inputs": [],
      "name": "getAllUserRequest",
      "outputs": [
        {
          "components": [
            {
              "internalType": "uint256",
              "name": "Id",
              "type": "uint256"
            },
            {
              "internalType": "string",
              "name": "Name",
              "type": "string"
            },
            {
              "internalType": "string",
              "name": "location",
              "type": "string"
            },
            {
              "internalType": "string",
              "name": "contactInformation",
              "type": "string"
            },
            {
              "internalType": "string",
              "name": "Country",
              "type": "string"
            },
            {
              "internalType": "string",
              "name": "City",
              "type": "string"
            },
            {
              "internalType": "string",
              "name": "BloodRequired",
              "type": "string"
            },
            {
              "internalType": "string",
              "name": "Notes",
              "type": "string"
            },
            {
              "internalType": "enum BloodDonation.Available",
              "name": "available",
              "type": "uint8"
            },
            {
              "internalType": "address",
              "name": "author",
              "type": "address"
            },
            {
              "internalType": "uint256",
              "name": "created",
              "type": "uint256"
            },
            {
              "internalType": "uint256",
              "name": "updated",
              "type": "uint256"
            }
          ],
          "internalType": "struct BloodDonation.RequestStruct[]",
          "name": "",
          "type": "tuple[]"
        }
      ],
      "payable": false,
      "stateMutability": "view",
      "type": "function"
    }
  ],
  "bytecode": "0x608060405260006001556000600255600060035560006004556000600555600060065534801561002e57600080fd5b50600080546001600160a01b03191633179055614bd6806100506000396000f3fe608060405234801561001057600080fd5b50600436106101215760003560e01c80635e2f8a3f116100ad578063aad6a8bf11610071578063aad6a8bf1461022d578063c8ab044714610240578063eebe0ba314610248578063f69131ef14610250578063f72b81f81461026357610121565b80635e2f8a3f146101d35780636eebc5f3146101e857806377406258146101fd5780638da5cb5b1461021d5780639e50f4c91461022557610121565b806326ebed93116100f457806326ebed931461018a57806330dfd9961461019d5780633c2d85cf146101a55780634cc792e7146101b8578063515c5320146101cb57610121565b8063066645971461012657806311b0315d146101445780631f8371a314610157578063265335321461016a575b600080fd5b61012e61026b565b60405161013b9190614a6b565b60405180910390f35b61012e6101523660046141d9565b610271565b61012e6101653660046141d9565b610283565b61017d6101783660046141ff565b610295565b60405161013b919061499d565b61017d610198366004614294565b610d1b565b61012e61112d565b61017d6101b3366004614294565b611133565b61017d6101c6366004614240565b6114dc565b61012e611f5d565b6101db611f63565b60405161013b919061497b565b6101f06125ac565b60405161013b919061498c565b61021061020b366004614294565b612b5b565b60405161013b919061496d565b610210612b76565b6101db612b85565b61017d61023b3660046141ff565b6130f6565b61012e613a2a565b6101f0613a3d565b61021061025e366004614294565b613f0e565b61012e613f29565b60015481565b600a6020526000908152604090205481565b60086020526000908152604090205481565b600080838360008181106102a557fe5b602002820190508035601e19368490030181126102c157600080fd5b909101602081019150356001600160401b038111156102df57600080fd5b368190038213156102ef57600080fd5b9050116103175760405162461bcd60e51b815260040161030e90614a5b565b60405180910390fd5b60008383600181811061032657fe5b602002820190508035601e193684900301811261034257600080fd5b909101602081019150356001600160401b0381111561036057600080fd5b3681900382131561037057600080fd5b90501161038f5760405162461bcd60e51b815260040161030e90614a0b565b60008383600281811061039e57fe5b602002820190508035601e19368490030181126103ba57600080fd5b909101602081019150356001600160401b038111156103d857600080fd5b368190038213156103e857600080fd5b9050116104075760405162461bcd60e51b815260040161030e90614a3b565b60008383600381811061041657fe5b602002820190508035601e193684900301811261043257600080fd5b909101602081019150356001600160401b0381111561045057600080fd5b3681900382131561046057600080fd5b90501161047f5760405162461bcd60e51b815260040161030e906149ab565b60008383600481811061048e57fe5b602002820190508035601e19368490030181126104aa57600080fd5b909101602081019150356001600160401b038111156104c857600080fd5b368190038213156104d857600080fd5b9050116104f75760405162461bcd60e51b815260040161030e906149cb565b60008383600581811061050657fe5b602002820190508035601e193684900301811261052257600080fd5b909101602081019150356001600160401b0381111561054057600080fd5b3681900382131561055057600080fd5b90501161056f5760405162461bcd60e51b815260040161030e90614a1b565b60008383600681811061057e57fe5b602002820190508035601e193684900301811261059a57600080fd5b909101602081019150356001600160401b038111156105b857600080fd5b368190038213156105c857600080fd5b9050116105e75760405162461bcd60e51b815260040161030e906149fb565b6000838360078181106105f657fe5b602002820190508035601e193684900301811261061257600080fd5b909101602081019150356001600160401b0381111561063057600080fd5b3681900382131561064057600080fd5b90501161065f5760405162461bcd60e51b815260040161030e906149bb565b600380546001908101808355600090815260076020908152604080832080546001600160a01b031916339081179091558352600882528083208054850190558354840190935582516101c0810190935292548252600b9282019086908690816106c457fe5b602002820190508035601e19368490030181126106e057600080fd5b909101602081019150356001600160401b038111156106fe57600080fd5b3681900382131561070e57600080fd5b8080601f0160208091040260200160405190810160405280939291908181526020018383808284376000920191909152505050908252506020018585600181811061075557fe5b602002820190508035601e193684900301811261077157600080fd5b909101602081019150356001600160401b0381111561078f57600080fd5b3681900382131561079f57600080fd5b8080601f016020809104026020016040519081016040528093929190818152602001838380828437600092019190915250505090825250602001858560028181106107e657fe5b602002820190508035601e193684900301811261080257600080fd5b909101602081019150356001600160401b0381111561082057600080fd5b3681900382131561083057600080fd5b8080601f0160208091040260200160405190810160405280939291908181526020018383808284376000920191909152505050908252506020018585600381811061087757fe5b602002820190508035601e193684900301811261089357600080fd5b909101602081019150356001600160401b038111156108b157600080fd5b368190038213156108c157600080fd5b8080601f0160208091040260200160405190810160405280939291908181526020018383808284376000920191909152505050908252506020018585600481811061090857fe5b602002820190508035601e193684900301811261092457600080fd5b909101602081019150356001600160401b0381111561094257600080fd5b3681900382131561095257600080fd5b8080601f0160208091040260200160405190810160405280939291908181526020018383808284376000920191909152505050908252506020018585600581811061099957fe5b602002820190508035601e19368490030181126109b557600080fd5b909101602081019150356001600160401b038111156109d357600080fd5b368190038213156109e357600080fd5b8080601f01602080910402602001604051908101604052809392919081815260200183838082843760009201919091525050509082525060200185856006818110610a2a57fe5b602002820190508035601e1936849003018112610a4657600080fd5b909101602081019150356001600160401b03811115610a6457600080fd5b36819003821315610a7457600080fd5b8080601f01602080910402602001604051908101604052809392919081815260200183838082843760009201919091525050509082525060200185856007818110610abb57fe5b602002820190508035601e1936849003018112610ad757600080fd5b909101602081019150356001600160401b03811115610af557600080fd5b36819003821315610b0557600080fd5b8080601f0160208091040260200160405190810160405280939291908181526020018383808284376000920182905250938552505050602082015233604082015260600160018152426020808301829052604090920152825460018181018086556000958652948390208451600d909302019182558383015180519293610b929392850192910190613f2f565b5060408201518051610bae916002840191602090910190613f2f565b5060608201518051610bca916003840191602090910190613f2f565b5060808201518051610be6916004840191602090910190613f2f565b5060a08201518051610c02916005840191602090910190613f2f565b5060c08201518051610c1e916006840191602090910190613f2f565b5060e08201518051610c3a916007840191602090910190613f2f565b506101008201518051610c57916008840191602090910190613f2f565b506101208201516009820155610140820151600a820180546001600160a01b0319166001600160a01b0390921691909117808255610160840151919060ff60a01b1916600160a01b836001811115610cab57fe5b021790555061018082015181600b01556101a082015181600c0155505050336001600160a01b03167f25860639157bd0ff6cbaf6cc0e9bceccf758ff2192709330761fce1853453b68600354600142604051610d0993929190614ab4565b60405180910390a25060015b92915050565b6000818152600760205260408120546001600160a01b03163314610d515760405162461bcd60e51b815260040161030e90614a4b565b60005b600b548110156110bd5782600b8281548110610d6c57fe5b90600052602060002090600d02016000015414156110ab576000600b8281548110610d9357fe5b60009182526020909120600a600d9092020101805460ff60a01b1916600160a01b836001811115610dc057fe5b021790555042600b8281548110610dd357fe5b90600052602060002090600d0201600c0181905550600c600b8281548110610df757fe5b600091825260208083208454600180820180885596865292909420600d938402909101805493909402019182558281018054610e4a92848101929160026000199282161561010002929092011604613fad565b5060028281018054610e6f928481019291600019610100600183161502011604613fad565b5060038201816003019080546001816001161561010002031660029004610e97929190613fad565b5060048201816004019080546001816001161561010002031660029004610ebf929190613fad565b5060058201816005019080546001816001161561010002031660029004610ee7929190613fad565b5060068201816006019080546001816001161561010002031660029004610f0f929190613fad565b5060078201816007019080546001816001161561010002031660029004610f37929190613fad565b5060088201816008019080546001816001161561010002031660029004610f5f929190613fad565b5060098281015490820155600a808301805491830180546001600160a01b0319166001600160a01b0390931692909217808355905460ff600160a01b9182900416929160ff60a01b191690836001811115610fb657fe5b0217905550600b82015481600b0155600c82015481600c0155505050600b8181548110610fdf57fe5b600091825260208220600d9091020181815590610fff6001830182614022565b61100d600283016000614022565b61101b600383016000614022565b611029600483016000614022565b611037600583016000614022565b611045600683016000614022565b611053600783016000614022565b611061600883016000614022565b50600060098201819055600a820180546001600160a81b0319169055600b8201819055600c90910181905581815260076020526040902080546001600160a01b03191690556110b5565b6000915050611128565b600101610d54565b5033600081815260086020526040908190208054600019908101909155600180549091018155600280549091019055517f07a0f890d9434fca4f1b7b2d0307e73a503ef67e0a3817e4e4e386412f05531b9061111c9085904290614ad3565b60405180910390a25060015b919050565b60045481565b6000818152600960205260408120546001600160a01b031633146111695760405162461bcd60e51b815260040161030e90614a4b565b60005b600d5481101561147d5782600d828154811061118457fe5b90600052602060002090600b02016000015414156110ab576001600d82815481106111ab57fe5b600091825260209091206008600b9092020101805460ff1916600183818111156111d157fe5b021790555042600d82815481106111e457fe5b90600052602060002090600b0201600a0181905550600e600d828154811061120857fe5b600091825260208083208454600180820180885596865292909420600b93840290910180549390940201918255828101805461125b92848101929160026000199282161561010002929092011604613fad565b5060028281018054611280928481019291600019610100600183161502011604613fad565b50600382018160030190805460018160011615610100020316600290046112a8929190613fad565b50600482018160040190805460018160011615610100020316600290046112d0929190613fad565b50600582018160050190805460018160011615610100020316600290046112f8929190613fad565b5060068201816006019080546001816001161561010002031660029004611320929190613fad565b5060078201816007019080546001816001161561010002031660029004611348929190613fad565b50600882810154908201805460ff9092169160ff19166001838181111561136b57fe5b02179055506008828101549082018054610100600160a81b031916610100928390046001600160a01b031690920291909117905560098083015490820155600a9182015491015550600d8054829081106113c157fe5b600091825260208220600b90910201818155906113e16001830182614022565b6113ef600283016000614022565b6113fd600383016000614022565b61140b600483016000614022565b611419600583016000614022565b611427600683016000614022565b611435600783016000614022565b506008810180546001600160a81b031916905560006009808301829055600a9092018190558281526020919091526040902080546001600160a01b031916905560010161116c565b50336000818152600a6020526040908190208054600019908101909155600480549091019055600580546001019055517fec8fa3e7159d1e46f4c19dc3189e9f303504880695258f1218e7ede457812f549061111c9085904290614ad3565b600080848460008181106114ec57fe5b602002820190508035601e193684900301811261150857600080fd5b909101602081019150356001600160401b0381111561152657600080fd5b3681900382131561153657600080fd5b9050116115555760405162461bcd60e51b815260040161030e90614a5b565b60008484600181811061156457fe5b602002820190508035601e193684900301811261158057600080fd5b909101602081019150356001600160401b0381111561159e57600080fd5b368190038213156115ae57600080fd5b9050116115cd5760405162461bcd60e51b815260040161030e90614a0b565b6000848460028181106115dc57fe5b602002820190508035601e19368490030181126115f857600080fd5b909101602081019150356001600160401b0381111561161657600080fd5b3681900382131561162657600080fd5b9050116116455760405162461bcd60e51b815260040161030e90614a3b565b60008484600381811061165457fe5b602002820190508035601e193684900301811261167057600080fd5b909101602081019150356001600160401b0381111561168e57600080fd5b3681900382131561169e57600080fd5b9050116116bd5760405162461bcd60e51b815260040161030e906149ab565b6000848460048181106116cc57fe5b602002820190508035601e19368490030181126116e857600080fd5b909101602081019150356001600160401b0381111561170657600080fd5b3681900382131561171657600080fd5b9050116117355760405162461bcd60e51b815260040161030e906149cb565b60008484600581811061174457fe5b602002820190508035601e193684900301811261176057600080fd5b909101602081019150356001600160401b0381111561177e57600080fd5b3681900382131561178e57600080fd5b9050116117ad5760405162461bcd60e51b815260040161030e90614a1b565b6000848460068181106117bc57fe5b602002820190508035601e19368490030181126117d857600080fd5b909101602081019150356001600160401b038111156117f657600080fd5b3681900382131561180657600080fd5b9050116118255760405162461bcd60e51b815260040161030e906149fb565b60008484600781811061183457fe5b602002820190508035601e193684900301811261185057600080fd5b909101602081019150356001600160401b0381111561186e57600080fd5b3681900382131561187e57600080fd5b90501161189d5760405162461bcd60e51b815260040161030e906149bb565b600380546001908101808355600090815260076020908152604080832080546001600160a01b031916339081179091558352600882528083208054850190558354840190935582516101c0810190935292548252600b92820190879087908161190257fe5b602002820190508035601e193684900301811261191e57600080fd5b909101602081019150356001600160401b0381111561193c57600080fd5b3681900382131561194c57600080fd5b8080601f0160208091040260200160405190810160405280939291908181526020018383808284376000920191909152505050908252506020018686600181811061199357fe5b602002820190508035601e19368490030181126119af57600080fd5b909101602081019150356001600160401b038111156119cd57600080fd5b368190038213156119dd57600080fd5b8080601f01602080910402602001604051908101604052809392919081815260200183838082843760009201919091525050509082525060200186866002818110611a2457fe5b602002820190508035601e1936849003018112611a4057600080fd5b909101602081019150356001600160401b03811115611a5e57600080fd5b36819003821315611a6e57600080fd5b8080601f01602080910402602001604051908101604052809392919081815260200183838082843760009201919091525050509082525060200186866003818110611ab557fe5b602002820190508035601e1936849003018112611ad157600080fd5b909101602081019150356001600160401b03811115611aef57600080fd5b36819003821315611aff57600080fd5b8080601f01602080910402602001604051908101604052809392919081815260200183838082843760009201919091525050509082525060200186866004818110611b4657fe5b602002820190508035601e1936849003018112611b6257600080fd5b909101602081019150356001600160401b03811115611b8057600080fd5b36819003821315611b9057600080fd5b8080601f01602080910402602001604051908101604052809392919081815260200183838082843760009201919091525050509082525060200186866005818110611bd757fe5b602002820190508035601e1936849003018112611bf357600080fd5b909101602081019150356001600160401b03811115611c1157600080fd5b36819003821315611c2157600080fd5b8080601f01602080910402602001604051908101604052809392919081815260200183838082843760009201919091525050509082525060200186866006818110611c6857fe5b602002820190508035601e1936849003018112611c8457600080fd5b909101602081019150356001600160401b03811115611ca257600080fd5b36819003821315611cb257600080fd5b8080601f01602080910402602001604051908101604052809392919081815260200183838082843760009201919091525050509082525060200186866007818110611cf957fe5b602002820190508035601e1936849003018112611d1557600080fd5b909101602081019150356001600160401b03811115611d3357600080fd5b36819003821315611d4357600080fd5b8080601f0160208091040260200160405190810160405280939291908181526020018383808284376000920191909152505050908252506020810185905233604082015260600160018152426020808301829052604090920152825460018181018086556000958652948390208451600d909302019182558383015180519293611dd39392850192910190613f2f565b5060408201518051611def916002840191602090910190613f2f565b5060608201518051611e0b916003840191602090910190613f2f565b5060808201518051611e27916004840191602090910190613f2f565b5060a08201518051611e43916005840191602090910190613f2f565b5060c08201518051611e5f916006840191602090910190613f2f565b5060e08201518051611e7b916007840191602090910190613f2f565b506101008201518051611e98916008840191602090910190613f2f565b506101208201516009820155610140820151600a820180546001600160a01b0319166001600160a01b0390921691909117808255610160840151919060ff60a01b1916600160a01b836001811115611eec57fe5b021790555061018082015181600b01556101a082015181600c0155505050336001600160a01b03167f25860639157bd0ff6cbaf6cc0e9bceccf758ff2192709330761fce1853453b68600354600142604051611f4a93929190614a79565b60405180910390a25060015b9392505050565b60055481565b60606000805b600b54811015611fbc57336001600160a01b0316600b8281548110611f8a57fe5b60009182526020909120600a600d9092020101546001600160a01b03161415611fb4576001909101905b600101611f69565b50606081604051908082528060200260200182016040528015611ff957816020015b611fe6614069565b815260200190600190039081611fde5790505b5090506000805b600b548110156125a257336001600160a01b0316600b828154811061202157fe5b60009182526020909120600a600d9092020101546001600160a01b0316141561259a57600b818154811061205157fe5b90600052602060002090600d0201604051806101c001604052908160008201548152602001600182018054600181600116156101000203166002900480601f01602080910402602001604051908101604052809291908181526020018280546001816001161561010002031660029004801561210e5780601f106120e35761010080835404028352916020019161210e565b820191906000526020600020905b8154815290600101906020018083116120f157829003601f168201915b5050509183525050600282810180546040805160206001841615610100026000190190931694909404601f810183900483028501830190915280845293810193908301828280156121a05780601f10612175576101008083540402835291602001916121a0565b820191906000526020600020905b81548152906001019060200180831161218357829003601f168201915b505050918352505060038201805460408051602060026001851615610100026000190190941693909304601f81018490048402820184019092528181529382019392918301828280156122345780601f1061220957610100808354040283529160200191612234565b820191906000526020600020905b81548152906001019060200180831161221757829003601f168201915b505050918352505060048201805460408051602060026001851615610100026000190190941693909304601f81018490048402820184019092528181529382019392918301828280156122c85780601f1061229d576101008083540402835291602001916122c8565b820191906000526020600020905b8154815290600101906020018083116122ab57829003601f168201915b505050918352505060058201805460408051602060026001851615610100026000190190941693909304601f810184900484028201840190925281815293820193929183018282801561235c5780601f106123315761010080835404028352916020019161235c565b820191906000526020600020905b81548152906001019060200180831161233f57829003601f168201915b505050918352505060068201805460408051602060026001851615610100026000190190941693909304601f81018490048402820184019092528181529382019392918301828280156123f05780601f106123c5576101008083540402835291602001916123f0565b820191906000526020600020905b8154815290600101906020018083116123d357829003601f168201915b505050918352505060078201805460408051602060026001851615610100026000190190941693909304601f81018490048402820184019092528181529382019392918301828280156124845780601f1061245957610100808354040283529160200191612484565b820191906000526020600020905b81548152906001019060200180831161246757829003601f168201915b505050918352505060088201805460408051602060026001851615610100026000190190941693909304601f81018490048402820184019092528181529382019392918301828280156125185780601f106124ed57610100808354040283529160200191612518565b820191906000526020600020905b8154815290600101906020018083116124fb57829003601f168201915b505050918352505060098201546020820152600a8201546001600160a01b0381166040830152606090910190600160a01b900460ff16600181111561255957fe5b600181111561256457fe5b8152602001600b8201548152602001600c8201548152505083838151811061258857fe5b60209081029190910101526001909101905b600101612000565b5090925050505b90565b60606000805b600d5481101561260a57336001600160a01b0316600d82815481106125d357fe5b60009182526020909120600b909102016008015461010090046001600160a01b03161415612602576001909101905b6001016125b2565b5060608160405190808252806020026020018201604052801561264757816020015b6126346140ec565b81526020019060019003908161262c5790505b5090506000805b600d548110156125a257336001600160a01b0316600d828154811061266f57fe5b60009182526020909120600b909102016008015461010090046001600160a01b03161415612b5357600d81815481106126a457fe5b90600052602060002090600b02016040518061018001604052908160008201548152602001600182018054600181600116156101000203166002900480601f0160208091040260200160405190810160405280929190818152602001828054600181600116156101000203166002900480156127615780601f1061273657610100808354040283529160200191612761565b820191906000526020600020905b81548152906001019060200180831161274457829003601f168201915b5050509183525050600282810180546040805160206001841615610100026000190190931694909404601f810183900483028501830190915280845293810193908301828280156127f35780601f106127c8576101008083540402835291602001916127f3565b820191906000526020600020905b8154815290600101906020018083116127d657829003601f168201915b505050918352505060038201805460408051602060026001851615610100026000190190941693909304601f81018490048402820184019092528181529382019392918301828280156128875780601f1061285c57610100808354040283529160200191612887565b820191906000526020600020905b81548152906001019060200180831161286a57829003601f168201915b505050918352505060048201805460408051602060026001851615610100026000190190941693909304601f810184900484028201840190925281815293820193929183018282801561291b5780601f106128f05761010080835404028352916020019161291b565b820191906000526020600020905b8154815290600101906020018083116128fe57829003601f168201915b505050918352505060058201805460408051602060026001851615610100026000190190941693909304601f81018490048402820184019092528181529382019392918301828280156129af5780601f10612984576101008083540402835291602001916129af565b820191906000526020600020905b81548152906001019060200180831161299257829003601f168201915b505050918352505060068201805460408051602060026001851615610100026000190190941693909304601f8101849004840282018401909252818152938201939291830182828015612a435780601f10612a1857610100808354040283529160200191612a43565b820191906000526020600020905b815481529060010190602001808311612a2657829003601f168201915b505050918352505060078201805460408051602060026001851615610100026000190190941693909304601f8101849004840282018401909252818152938201939291830182828015612ad75780601f10612aac57610100808354040283529160200191612ad7565b820191906000526020600020905b815481529060010190602001808311612aba57829003601f168201915b5050509183525050600882015460209091019060ff166001811115612af857fe5b6001811115612b0357fe5b8152600882015461010090046001600160a01b0316602082015260098201546040820152600a909101546060909101528351849084908110612b4157fe5b60209081029190910101526001909101905b60010161264e565b6007602052600090815260409020546001600160a01b031681565b6000546001600160a01b031681565b6060600b805480602002602001604051908101604052809291908181526020016000905b828210156130ed57838290600052602060002090600d0201604051806101c001604052908160008201548152602001600182018054600181600116156101000203166002900480601f016020809104026020016040519081016040528092919081815260200182805460018160011615610100020316600290048015612c705780601f10612c4557610100808354040283529160200191612c70565b820191906000526020600020905b815481529060010190602001808311612c5357829003601f168201915b5050509183525050600282810180546040805160206001841615610100026000190190931694909404601f81018390048302850183019091528084529381019390830182828015612d025780601f10612cd757610100808354040283529160200191612d02565b820191906000526020600020905b815481529060010190602001808311612ce557829003601f168201915b505050918352505060038201805460408051602060026001851615610100026000190190941693909304601f8101849004840282018401909252818152938201939291830182828015612d965780601f10612d6b57610100808354040283529160200191612d96565b820191906000526020600020905b815481529060010190602001808311612d7957829003601f168201915b505050918352505060048201805460408051602060026001851615610100026000190190941693909304601f8101849004840282018401909252818152938201939291830182828015612e2a5780601f10612dff57610100808354040283529160200191612e2a565b820191906000526020600020905b815481529060010190602001808311612e0d57829003601f168201915b505050918352505060058201805460408051602060026001851615610100026000190190941693909304601f8101849004840282018401909252818152938201939291830182828015612ebe5780601f10612e9357610100808354040283529160200191612ebe565b820191906000526020600020905b815481529060010190602001808311612ea157829003601f168201915b505050918352505060068201805460408051602060026001851615610100026000190190941693909304601f8101849004840282018401909252818152938201939291830182828015612f525780601f10612f2757610100808354040283529160200191612f52565b820191906000526020600020905b815481529060010190602001808311612f3557829003601f168201915b505050918352505060078201805460408051602060026001851615610100026000190190941693909304601f8101849004840282018401909252818152938201939291830182828015612fe65780601f10612fbb57610100808354040283529160200191612fe6565b820191906000526020600020905b815481529060010190602001808311612fc957829003601f168201915b505050918352505060088201805460408051602060026001851615610100026000190190941693909304601f810184900484028201840190925281815293820193929183018282801561307a5780601f1061304f5761010080835404028352916020019161307a565b820191906000526020600020905b81548152906001019060200180831161305d57829003601f168201915b505050918352505060098201546020820152600a8201546001600160a01b0381166040830152606090910190600160a01b900460ff1660018111156130bb57fe5b60018111156130c657fe5b8152602001600b8201548152602001600c8201548152505081526020019060010190612ba9565b50505050905090565b6000808383600081811061310657fe5b602002820190508035601e193684900301811261312257600080fd5b909101602081019150356001600160401b0381111561314057600080fd5b3681900382131561315057600080fd5b90501161316f5760405162461bcd60e51b815260040161030e90614a5b565b60008383600181811061317e57fe5b602002820190508035601e193684900301811261319a57600080fd5b909101602081019150356001600160401b038111156131b857600080fd5b368190038213156131c857600080fd5b9050116131e75760405162461bcd60e51b815260040161030e906149cb565b6000838360028181106131f657fe5b602002820190508035601e193684900301811261321257600080fd5b909101602081019150356001600160401b0381111561323057600080fd5b3681900382131561324057600080fd5b90501161325f5760405162461bcd60e51b815260040161030e90614a2b565b60008383600381811061326e57fe5b602002820190508035601e193684900301811261328a57600080fd5b909101602081019150356001600160401b038111156132a857600080fd5b368190038213156132b857600080fd5b9050116132d75760405162461bcd60e51b815260040161030e90614a1b565b6000838360048181106132e657fe5b602002820190508035601e193684900301811261330257600080fd5b909101602081019150356001600160401b0381111561332057600080fd5b3681900382131561333057600080fd5b90501161334f5760405162461bcd60e51b815260040161030e906149fb565b60008383600581811061335e57fe5b602002820190508035601e193684900301811261337a57600080fd5b909101602081019150356001600160401b0381111561339857600080fd5b368190038213156133a857600080fd5b9050116133c75760405162461bcd60e51b815260040161030e906149db565b6000838360068181106133d657fe5b602002820190508035601e19368490030181126133f257600080fd5b909101602081019150356001600160401b0381111561341057600080fd5b3681900382131561342057600080fd5b90501161343f5760405162461bcd60e51b815260040161030e906149eb565b600680546001908101808355600090815260096020908152604080832080546001600160a01b031916339081179091558352600a8252808320805485019055600480549094019093558251610180810190935292548252600d9282019086908690816134a757fe5b602002820190508035601e19368490030181126134c357600080fd5b909101602081019150356001600160401b038111156134e157600080fd5b368190038213156134f157600080fd5b8080601f0160208091040260200160405190810160405280939291908181526020018383808284376000920191909152505050908252506020018585600181811061353857fe5b602002820190508035601e193684900301811261355457600080fd5b909101602081019150356001600160401b0381111561357257600080fd5b3681900382131561358257600080fd5b8080601f016020809104026020016040519081016040528093929190818152602001838380828437600092019190915250505090825250602001858560028181106135c957fe5b602002820190508035601e19368490030181126135e557600080fd5b909101602081019150356001600160401b0381111561360357600080fd5b3681900382131561361357600080fd5b8080601f0160208091040260200160405190810160405280939291908181526020018383808284376000920191909152505050908252506020018585600381811061365a57fe5b602002820190508035601e193684900301811261367657600080fd5b909101602081019150356001600160401b0381111561369457600080fd5b368190038213156136a457600080fd5b8080601f016020809104026020016040519081016040528093929190818152602001838380828437600092019190915250505090825250602001858560048181106136eb57fe5b602002820190508035601e193684900301811261370757600080fd5b909101602081019150356001600160401b0381111561372557600080fd5b3681900382131561373557600080fd5b8080601f0160208091040260200160405190810160405280939291908181526020018383808284376000920191909152505050908252506020018585600581811061377c57fe5b602002820190508035601e193684900301811261379857600080fd5b909101602081019150356001600160401b038111156137b657600080fd5b368190038213156137c657600080fd5b8080601f0160208091040260200160405190810160405280939291908181526020018383808284376000920191909152505050908252506020018585600681811061380d57fe5b602002820190508035601e193684900301811261382957600080fd5b909101602081019150356001600160401b0381111561384757600080fd5b3681900382131561385757600080fd5b8080601f01602080910402602001604051908101604052809392919081815260200183838082843760009201829052509385525050506020808301829052336040840152426060840181905260809093019290925283546001808201808755958352918390208451600b9092020190815583830151805191936138df93850192910190613f2f565b50604082015180516138fb916002840191602090910190613f2f565b5060608201518051613917916003840191602090910190613f2f565b5060808201518051613933916004840191602090910190613f2f565b5060a0820151805161394f916005840191602090910190613f2f565b5060c0820151805161396b916006840191602090910190613f2f565b5060e08201518051613987916007840191602090910190613f2f565b5061010082015160088201805460ff1916600183818111156139a557fe5b02179055506101208201516008820180546001600160a01b0390921661010002610100600160a81b0319909216919091179055610140820151600982015561016090910151600a909101555060065460405133917f7e09e262ba9b5b6d1f2cbcc8502a86922bfb5d348003a7891538f9d43fc89abf91610d0991906000904290614ab4565b3360009081526008602052604090205490565b6060600d805480602002602001604051908101604052809291908181526020016000905b828210156130ed57838290600052602060002090600b02016040518061018001604052908160008201548152602001600182018054600181600116156101000203166002900480601f016020809104026020016040519081016040528092919081815260200182805460018160011615610100020316600290048015613b285780601f10613afd57610100808354040283529160200191613b28565b820191906000526020600020905b815481529060010190602001808311613b0b57829003601f168201915b5050509183525050600282810180546040805160206001841615610100026000190190931694909404601f81018390048302850183019091528084529381019390830182828015613bba5780601f10613b8f57610100808354040283529160200191613bba565b820191906000526020600020905b815481529060010190602001808311613b9d57829003601f168201915b505050918352505060038201805460408051602060026001851615610100026000190190941693909304601f8101849004840282018401909252818152938201939291830182828015613c4e5780601f10613c2357610100808354040283529160200191613c4e565b820191906000526020600020905b815481529060010190602001808311613c3157829003601f168201915b505050918352505060048201805460408051602060026001851615610100026000190190941693909304601f8101849004840282018401909252818152938201939291830182828015613ce25780601f10613cb757610100808354040283529160200191613ce2565b820191906000526020600020905b815481529060010190602001808311613cc557829003601f168201915b505050918352505060058201805460408051602060026001851615610100026000190190941693909304601f8101849004840282018401909252818152938201939291830182828015613d765780601f10613d4b57610100808354040283529160200191613d76565b820191906000526020600020905b815481529060010190602001808311613d5957829003601f168201915b505050918352505060068201805460408051602060026001851615610100026000190190941693909304601f8101849004840282018401909252818152938201939291830182828015613e0a5780601f10613ddf57610100808354040283529160200191613e0a565b820191906000526020600020905b815481529060010190602001808311613ded57829003601f168201915b505050918352505060078201805460408051602060026001851615610100026000190190941693909304601f8101849004840282018401909252818152938201939291830182828015613e9e5780601f10613e7357610100808354040283529160200191613e9e565b820191906000526020600020905b815481529060010190602001808311613e8157829003601f168201915b5050509183525050600882015460209091019060ff166001811115613ebf57fe5b6001811115613eca57fe5b8152600882015461010090046001600160a01b031660208083019190915260098301546040830152600a909201546060909101529082526001929092019101613a61565b6009602052600090815260409020546001600160a01b031681565b60025481565b828054600181600116156101000203166002900490600052602060002090601f016020900481019282601f10613f7057805160ff1916838001178555613f9d565b82800160010185558215613f9d579182015b82811115613f9d578251825591602001919060010190613f82565b50613fa9929150614161565b5090565b828054600181600116156101000203166002900490600052602060002090601f016020900481019282601f10613fe65780548555613f9d565b82800160010185558215613f9d57600052602060002091601f016020900482015b82811115613f9d578254825591600101919060010190614007565b50805460018160011615610100020316600290046000825580601f106140485750614066565b601f0160209004906000526020600020908101906140669190614161565b50565b604051806101c001604052806000815260200160608152602001606081526020016060815260200160608152602001606081526020016060815260200160608152602001606081526020016000815260200160006001600160a01b03168152602001600060018111156140d857fe5b815260200160008152602001600081525090565b60405180610180016040528060008152602001606081526020016060815260200160608152602001606081526020016060815260200160608152602001606081526020016000600181111561413d57fe5b815260200160006001600160a01b0316815260200160008152602001600081525090565b6125a991905b80821115613fa95760008155600101614167565b8035610d1581614b76565b60008083601f84011261419857600080fd5b5081356001600160401b038111156141af57600080fd5b6020830191508360208202830111156141c757600080fd5b9250929050565b8035610d1581614b8a565b6000602082840312156141eb57600080fd5b60006141f7848461417b565b949350505050565b6000806020838503121561421257600080fd5b82356001600160401b0381111561422857600080fd5b61423485828601614186565b92509250509250929050565b60008060006040848603121561425557600080fd5b83356001600160401b0381111561426b57600080fd5b61427786828701614186565b9350935050602061428a868287016141ce565b9150509250925092565b6000602082840312156142a657600080fd5b60006141f784846141ce565b6000611f5683836146f1565b6000611f568383614849565b6142d381614b01565b82525050565b60006142e482614af4565b6142ee8185614af8565b93508360208202850161430085614aee565b8060005b8581101561433a578484038952815161431d85826142b2565b945061432883614aee565b60209a909a0199925050600101614304565b5091979650505050505050565b600061435282614af4565b61435c8185614af8565b93508360208202850161436e85614aee565b8060005b8581101561433a578484038952815161438b85826142be565b945061439683614aee565b60209a909a0199925050600101614372565b6142d381614b0c565b6142d381614b27565b60006143c582614af4565b6143cf8185614af8565b93506143df818560208601614b32565b6143e881614b62565b9093019392505050565b60006143ff602383614af8565b7f636f6e6174616374496e666f72616d74696f6e2063616e6e6f7420626520656d81526270747960e81b602082015260400192915050565b6000614444602683614af8565b7f426c6f6f6447726f757020696e666f726d6174696f6e2063616e6e6f7420626581526520656d70747960d01b602082015260400192915050565b600061448c601883614af8565b7f6c6f636174696f6e2063616e6e6f7420626520656d7074790000000000000000815260200192915050565b60006144c5601a83614af8565b7f426c6f6f6447726f75702063616e6e6f7420626520656d707479000000000000815260200192915050565b60006144fe601c83614af8565b7f446f6e6172204352454154454420776968742052657175657374496400000000815260200192915050565b6000614537601583614af8565b744e6f7465732063616e6e6f7420626520656d70747960581b815260200192915050565b6000614568601483614af8565b73636974792063616e6e6f7420626520656d70747960601b815260200192915050565b6000614598601383614af8565b726167652063616e6e6f7420626520656d70747960681b815260200192915050565b60006145c7600d83614af8565b6c111bdb985c8810d49150551151609a1b815260200192915050565b60006145f0601783614af8565b7f636f756e7472792063616e6e6f7420626520656d707479000000000000000000815260200192915050565b6000614629602283614af8565b7f636f6e74616374496e666f726d6174696f6e2063616e6e6f7420626520656d70815261747960f01b602082015260400192915050565b600061466d601683614af8565b7567656e6465722063616e6e6f7420626520656d70747960501b815260200192915050565b600061469f601383614af8565b72556e617574686f72697a656420656e7469747960681b815260200192915050565b60006146ce601483614af8565b736e616d652063616e6e6f7420626520656d70747960601b815260200192915050565b80516000906101c08401906147068582614964565b506020830151848203602086015261471e82826143ba565b9150506040830151848203604086015261473882826143ba565b9150506060830151848203606086015261475282826143ba565b9150506080830151848203608086015261476c82826143ba565b91505060a083015184820360a086015261478682826143ba565b91505060c083015184820360c08601526147a082826143ba565b91505060e083015184820360e08601526147ba82826143ba565b9150506101008301518482036101008601526147d682826143ba565b9150506101208301516147ed610120860182614964565b506101408301516148026101408601826142ca565b506101608301516148176101608601826143b1565b5061018083015161482c610180860182614964565b506101a08301516148416101a0860182614964565b509392505050565b805160009061018084019061485e8582614964565b506020830151848203602086015261487682826143ba565b9150506040830151848203604086015261489082826143ba565b915050606083015184820360608601526148aa82826143ba565b915050608083015184820360808601526148c482826143ba565b91505060a083015184820360a08601526148de82826143ba565b91505060c083015184820360c08601526148f882826143ba565b91505060e083015184820360e086015261491282826143ba565b9150506101008301516149296101008601826143b1565b5061012083015161493e6101208601826142ca565b50610140830151614953610140860182614964565b506101608301516148416101608601825b6142d3816125a9565b60208101610d1582846142ca565b60208082528101611f5681846142d9565b60208082528101611f568184614347565b60208101610d1582846143a8565b60208082528101610d15816143f2565b60208082528101610d1581614437565b60208082528101610d158161447f565b60208082528101610d15816144b8565b60208082528101610d158161452a565b60208082528101610d158161455b565b60208082528101610d158161458b565b60208082528101610d15816145e3565b60208082528101610d158161461c565b60208082528101610d1581614660565b60208082528101610d1581614692565b60208082528101610d15816146c1565b60208101610d158284614964565b60808101614a878286614964565b8181036020830152614a98816144f1565b9050614aa760408301856143b1565b6141f76060830184614964565b60808101614ac28286614964565b8181036020830152614a98816145ba565b60408101614ae18285614964565b611f566020830184614964565b60200190565b5190565b90815260200190565b6000610d1582614b1b565b151590565b8061112881614b6c565b6001600160a01b031690565b6000610d1582614b11565b60005b83811015614b4d578181015183820152602001614b35565b83811115614b5c576000848401525b50505050565b601f01601f191690565b6002811061406657fe5b614b7f81614b01565b811461406657600080fd5b614b7f816125a956fea365627a7a7231582074a5489396c16cce7c9ef226386e96ec67f07ab32c1e7904b6ed7d723717d4a16c6578706572696d656e74616cf564736f6c63430005100040",
  "source": "pragma solidity >=0.4.22 <0.9.0;\r\npragma experimental ABIEncoderV2;\r\n\r\ncontract BloodDonation {\r\n    //Some Public and private Variable\r\n    address public owner;\r\n    uint256 public activeDonarCounter = 0;\r\n    uint256 public inactiveDonarCounter = 0;\r\n    uint256 private donarCounter = 0;\r\n    uint256 public activeRequestCounter = 0;\r\n    uint256 public inactiveRequestCounter = 0;\r\n    uint256 private RequestCounter = 0;\r\n\r\n    //Constructor\r\n    constructor() public {\r\n        owner = msg.sender;\r\n    }\r\n\r\n    //mapsDonar\r\n    mapping(uint256 => address) public donarOf;\r\n    mapping(address => uint256) public donarPost;\r\n\r\n    //MapOfRequest\r\n    mapping(uint256 => address) public RequestOf;\r\n    mapping(address => uint256) public RequestPost;\r\n\r\n    //Enum\r\n    enum Available {\r\n        NO,\r\n        YES\r\n    }\r\n\r\n    //DonarStruct\r\n    struct DonarStruct {\r\n        uint256 Id;\r\n        string name;\r\n        string age;\r\n        string gender;\r\n        string contactinformation;\r\n        string location;\r\n        string country;\r\n        string city;\r\n        string bloodGroup;\r\n        uint256 requestId;\r\n        address author;\r\n        Available available;\r\n        uint256 created;\r\n        uint256 updated;\r\n    }\r\n\r\n    //RequestStruct\r\n    struct RequestStruct {\r\n        uint256 Id;\r\n        string Name;\r\n        string location;\r\n        string contactInformation;\r\n        string Country;\r\n        string City;\r\n        string BloodRequired;\r\n        string Notes;\r\n        Available available;\r\n        address author;\r\n        uint256 created;\r\n        uint256 updated;\r\n    }\r\n\r\n    //activeDonars and inactiveDonar array\r\n    DonarStruct[] activeDonars;\r\n    DonarStruct[] inactiveDonars;\r\n    RequestStruct[] allactiveRequest;\r\n    RequestStruct[] allInactiveRequest;\r\n\r\n    //Events\r\n    event createRequest(\r\n        uint256 postId,\r\n        string actionType,\r\n        Available available,\r\n        address indexed executor,\r\n        uint256 created\r\n    );\r\n\r\n    event UpdateRequestStatus(\r\n        uint256 postId,\r\n        address indexed executor,\r\n        uint256 created\r\n    );\r\n\r\n    //Events\r\n    event Action(\r\n        uint256 postId,\r\n        string actionType,\r\n        Available available,\r\n        address indexed executor,\r\n        uint256 created\r\n    );\r\n\r\n    //Update Donar Value\r\n    event UpdateDonarValue(\r\n        uint256 postId,\r\n        address indexed executor,\r\n        uint256 created\r\n    );\r\n\r\n    //Update Donar Status\r\n    event UpdateDonarStatus(\r\n        uint256 postId,\r\n        address indexed executor,\r\n        uint256 created\r\n    );\r\n\r\n    event UpdateDonarRequestId(\r\n        uint256 postId,\r\n        address indexed executor,\r\n        uint256 created\r\n    );\r\n\r\n    //Modifier\r\n    modifier ownerOnly() {\r\n        require(msg.sender == owner, \"Owner reserved only\");\r\n        _;\r\n    }\r\n\r\n    function getLastUserPostId() external view returns (uint256) {\r\n        uint256 results;\r\n        results = donarPost[msg.sender];\r\n        return results;\r\n    }\r\n\r\n    //create Donar\r\n    function createDonar(string[] calldata data) external returns (bool) {\r\n        require(bytes(data[0]).length > 0, \"name cannot be empty\");\r\n        require(bytes(data[1]).length > 0, \"age cannot be empty\");\r\n        require(bytes(data[2]).length > 0, \"gender cannot be empty\");\r\n        require(\r\n            bytes(data[3]).length > 0,\r\n            \"conatactInforamtion cannot be empty\"\r\n        );\r\n        require(bytes(data[4]).length > 0, \"location cannot be empty\");\r\n        require(bytes(data[5]).length > 0, \"country cannot be empty\");\r\n        require(bytes(data[6]).length > 0, \"city cannot be empty\");\r\n        require(\r\n            bytes(data[7]).length > 0,\r\n            \"BloodGroup information cannot be empty\"\r\n        );\r\n\r\n        donarCounter++;\r\n        donarOf[donarCounter] = msg.sender;\r\n        donarPost[msg.sender]++;\r\n        activeDonarCounter++;\r\n\r\n        activeDonars.push(\r\n            DonarStruct(\r\n                donarCounter,\r\n                data[0],\r\n                data[1],\r\n                data[2],\r\n                data[3],\r\n                data[4],\r\n                data[5],\r\n                data[6],\r\n                data[7],\r\n                0,\r\n                msg.sender,\r\n                Available.YES,\r\n                block.timestamp,\r\n                block.timestamp\r\n            )\r\n        );\r\n\r\n        emit Action(\r\n            donarCounter,\r\n            \"Donar CREATED\",\r\n            Available.YES,\r\n            msg.sender,\r\n            block.timestamp\r\n        );\r\n\r\n        return true;\r\n    }\r\n\r\n    //update Donar Status\r\n    function updateDonarStatus(uint256 Id) external returns (bool) {\r\n        require(donarOf[Id] == msg.sender, \"Unauthorized entity\");\r\n        for (uint256 i = 0; i < activeDonars.length; i++) {\r\n            if (activeDonars[i].Id == Id) {\r\n                activeDonars[i].available = Available.NO;\r\n                activeDonars[i].updated = block.timestamp;\r\n                inactiveDonars.push(activeDonars[i]);\r\n                delete activeDonars[i];\r\n                delete donarOf[i];\r\n            } else {\r\n                return false;\r\n            }\r\n        }\r\n        donarPost[msg.sender]--;\r\n        activeDonarCounter--;\r\n        inactiveDonarCounter++;\r\n        emit UpdateDonarStatus(Id, msg.sender, block.timestamp);\r\n        return true;\r\n    }\r\n\r\n\r\n    //create Donar with RequestId\r\n    function updateDonarRequestStatus(string[] calldata data ,uint256 RequestId) external returns (bool) {\r\n        require(bytes(data[0]).length > 0, \"name cannot be empty\");\r\n        require(bytes(data[1]).length > 0, \"age cannot be empty\");\r\n        require(bytes(data[2]).length > 0, \"gender cannot be empty\");\r\n        require(\r\n            bytes(data[3]).length > 0,\r\n            \"conatactInforamtion cannot be empty\"\r\n        );\r\n        require(bytes(data[4]).length > 0, \"location cannot be empty\");\r\n        require(bytes(data[5]).length > 0, \"country cannot be empty\");\r\n        require(bytes(data[6]).length > 0, \"city cannot be empty\");\r\n        require(\r\n            bytes(data[7]).length > 0,\r\n            \"BloodGroup information cannot be empty\"\r\n        );\r\n\r\n        donarCounter++;\r\n        donarOf[donarCounter] = msg.sender;\r\n        donarPost[msg.sender]++;\r\n        activeDonarCounter++;\r\n\r\n        activeDonars.push(\r\n            DonarStruct(\r\n                donarCounter,\r\n                data[0],\r\n                data[1],\r\n                data[2],\r\n                data[3],\r\n                data[4],\r\n                data[5],\r\n                data[6],\r\n                data[7],\r\n                RequestId,\r\n                msg.sender,\r\n                Available.YES,\r\n                block.timestamp,\r\n                block.timestamp\r\n            )\r\n        );\r\n\r\n        emit Action(\r\n            donarCounter,\r\n            \"Donar CREATED wiht RequestId\",\r\n            Available.YES,\r\n            msg.sender,\r\n            block.timestamp\r\n        );\r\n\r\n        return true;\r\n    }\r\n\r\n    //Get All ActiveDonars\r\n    function getAllActiveDonars() external view returns (DonarStruct[] memory) {\r\n        return activeDonars;\r\n    }\r\n\r\n    //Get All UserActiveDonar\r\n    function getAllUserActiveDonars()\r\n        external\r\n        view\r\n        returns (DonarStruct[] memory)\r\n    {\r\n        uint256 resultCount;\r\n        for (uint256 i = 0; i < activeDonars.length; i++) {\r\n            if (activeDonars[i].author == msg.sender) {\r\n                resultCount++;\r\n            }\r\n        }\r\n        DonarStruct[] memory results = new DonarStruct[](resultCount);\r\n        uint256 j;\r\n\r\n        for (uint256 i = 0; i < activeDonars.length; i++) {\r\n            if (activeDonars[i].author == msg.sender) {\r\n                results[j] = activeDonars[i];\r\n                j++;\r\n            }\r\n        }\r\n\r\n        return results;\r\n    }\r\n\r\n    //CreateDonarRequest\r\n    function createBloodRequest(string[] calldata data)\r\n        external\r\n        returns (bool)\r\n    {\r\n        require(bytes(data[0]).length > 0, \"name cannot be empty\");\r\n        require(bytes(data[1]).length > 0, \"location cannot be empty\");\r\n        require(\r\n            bytes(data[2]).length > 0,\r\n            \"contactInformation cannot be empty\"\r\n        );\r\n        require(bytes(data[3]).length > 0, \"country cannot be empty\");\r\n        require(bytes(data[4]).length > 0, \"city cannot be empty\");\r\n        require(bytes(data[5]).length > 0, \"BloodGroup cannot be empty\");\r\n        require(bytes(data[6]).length > 0, \"Notes cannot be empty\");\r\n\r\n        RequestCounter++;\r\n        RequestOf[RequestCounter] = msg.sender;\r\n        RequestPost[msg.sender]++;\r\n        activeRequestCounter++;\r\n\r\n        allactiveRequest.push(\r\n            RequestStruct(\r\n                RequestCounter,\r\n                data[0],\r\n                data[1],\r\n                data[2],\r\n                data[3],\r\n                data[4],\r\n                data[5],\r\n                data[6],\r\n                Available.NO,\r\n                msg.sender,\r\n                block.timestamp,\r\n                block.timestamp\r\n            )\r\n        );\r\n\r\n        emit createRequest(\r\n            RequestCounter,\r\n            \"Donar CREATED\",\r\n            Available.NO,\r\n            msg.sender,\r\n            block.timestamp\r\n        );\r\n\r\n        return true;\r\n    }\r\n\r\n    function updateRequestStatus(uint256 Id) external returns (bool) {\r\n        require(RequestOf[Id] == msg.sender, \"Unauthorized entity\");\r\n        for (uint256 i = 0; i < allactiveRequest.length; i++) {\r\n            if (allactiveRequest[i].Id == Id) {\r\n                allactiveRequest[i].available = Available.YES;\r\n                allactiveRequest[i].updated = block.timestamp;\r\n                allInactiveRequest.push(allactiveRequest[i]);\r\n                delete allactiveRequest[i];\r\n                delete RequestOf[i];\r\n            } else {\r\n                return false;\r\n            }\r\n        }\r\n        RequestPost[msg.sender]--;\r\n        activeRequestCounter--;\r\n        inactiveRequestCounter++;\r\n        emit UpdateRequestStatus(Id, msg.sender, block.timestamp);\r\n        return true;\r\n    }\r\n\r\n    function getAllBloodRequest()\r\n        external\r\n        view\r\n        returns (RequestStruct[] memory)\r\n    {\r\n        return allactiveRequest;\r\n    }\r\n\r\n    function getAllUserRequest()\r\n        external\r\n        view\r\n        returns (RequestStruct[] memory)\r\n    {\r\n        uint256 resultCount;\r\n        for (uint256 i = 0; i < allactiveRequest.length; i++) {\r\n            if (allactiveRequest[i].author == msg.sender) {\r\n                resultCount++;\r\n            }\r\n        }\r\n        RequestStruct[] memory results = new RequestStruct[](resultCount);\r\n        uint256 j;\r\n\r\n        for (uint256 i = 0; i < allactiveRequest.length; i++) {\r\n            if (allactiveRequest[i].author == msg.sender) {\r\n                results[j] = allactiveRequest[i];\r\n                j++;\r\n            }\r\n        }\r\n\r\n        return results;\r\n    }\r\n}\r\n",
  "sourcePath": "C:\\WorkSpace\\hackathon\\Donark.Web3\\contracts\\BloodDonation.sol",
  "compiler": {
    "name": "solc",
    "version": "0.5.16+commit.9c3226ce.Emscripten.clang"
  },
  "schemaVersion": "3.4.8",
  "updatedAt": "2022-08-21T06:47:45.600Z",
  "networkType": "ethereum",
  "devdoc": {
    "methods": {}
  },
  "userdoc": {
    "methods": {}
  }
}