{
  "contractName": "Request",
  "abi": [
    {
      "inputs": [],
      "payable": false,
      "stateMutability": "nonpayable",
      "type": "constructor"
    },
    {
      "anonymous": false,
      "inputs": [
        {
          "indexed": false,
          "internalType": "uint256",
          "name": "postId",
          "type": "uint256"
        },
        {
          "indexed": true,
          "internalType": "address",
          "name": "executor",
          "type": "address"
        },
        {
          "indexed": false,
          "internalType": "uint256",
          "name": "created",
          "type": "uint256"
        }
      ],
      "name": "UpdateRequestStatus",
      "type": "event"
    },
    {
      "anonymous": false,
      "inputs": [
        {
          "indexed": false,
          "internalType": "uint256",
          "name": "postId",
          "type": "uint256"
        },
        {
          "indexed": false,
          "internalType": "string",
          "name": "actionType",
          "type": "string"
        },
        {
          "indexed": false,
          "internalType": "enum Request.Available",
          "name": "available",
          "type": "uint8"
        },
        {
          "indexed": true,
          "internalType": "address",
          "name": "executor",
          "type": "address"
        },
        {
          "indexed": false,
          "internalType": "uint256",
          "name": "created",
          "type": "uint256"
        }
      ],
      "name": "createRequest",
      "type": "event"
    },
    {
      "constant": true,
      "inputs": [
        {
          "internalType": "uint256",
          "name": "",
          "type": "uint256"
        }
      ],
      "name": "RequestOf",
      "outputs": [
        {
          "internalType": "address",
          "name": "",
          "type": "address"
        }
      ],
      "payable": false,
      "stateMutability": "view",
      "type": "function"
    },
    {
      "constant": true,
      "inputs": [
        {
          "internalType": "address",
          "name": "",
          "type": "address"
        }
      ],
      "name": "RequestPost",
      "outputs": [
        {
          "internalType": "uint256",
          "name": "",
          "type": "uint256"
        }
      ],
      "payable": false,
      "stateMutability": "view",
      "type": "function"
    },
    {
      "constant": true,
      "inputs": [],
      "name": "activeRequestCounter",
      "outputs": [
        {
          "internalType": "uint256",
          "name": "",
          "type": "uint256"
        }
      ],
      "payable": false,
      "stateMutability": "view",
      "type": "function"
    },
    {
      "constant": true,
      "inputs": [],
      "name": "inactiveRequestCounter",
      "outputs": [
        {
          "internalType": "uint256",
          "name": "",
          "type": "uint256"
        }
      ],
      "payable": false,
      "stateMutability": "view",
      "type": "function"
    },
    {
      "constant": true,
      "inputs": [],
      "name": "owner",
      "outputs": [
        {
          "internalType": "address",
          "name": "",
          "type": "address"
        }
      ],
      "payable": false,
      "stateMutability": "view",
      "type": "function"
    },
    {
      "constant": false,
      "inputs": [
        {
          "internalType": "string[]",
          "name": "data",
          "type": "string[]"
        }
      ],
      "name": "createBloodRequest",
      "outputs": [
        {
          "internalType": "bool",
          "name": "",
          "type": "bool"
        }
      ],
      "payable": false,
      "stateMutability": "nonpayable",
      "type": "function"
    },
    {
      "constant": false,
      "inputs": [
        {
          "internalType": "uint256",
          "name": "Id",
          "type": "uint256"
        }
      ],
      "name": "updateRequestStatus",
      "outputs": [
        {
          "internalType": "bool",
          "name": "",
          "type": "bool"
        }
      ],
      "payable": false,
      "stateMutability": "nonpayable",
      "type": "function"
    },
    {
      "constant": true,
      "inputs": [],
      "name": "getAllBloodRequest",
      "outputs": [
        {
          "components": [
            {
              "internalType": "uint256",
              "name": "Id",
              "type": "uint256"
            },
            {
              "internalType": "string",
              "name": "Name",
              "type": "string"
            },
            {
              "internalType": "string",
              "name": "location",
              "type": "string"
            },
            {
              "internalType": "string",
              "name": "contactInformation",
              "type": "string"
            },
            {
              "internalType": "string",
              "name": "Country",
              "type": "string"
            },
            {
              "internalType": "string",
              "name": "City",
              "type": "string"
            },
            {
              "internalType": "string",
              "name": "BloodRequired",
              "type": "string"
            },
            {
              "internalType": "string",
              "name": "Notes",
              "type": "string"
            },
            {
              "internalType": "enum Request.Available",
              "name": "available",
              "type": "uint8"
            },
            {
              "internalType": "address",
              "name": "author",
              "type": "address"
            },
            {
              "internalType": "uint256",
              "name": "created",
              "type": "uint256"
            },
            {
              "internalType": "uint256",
              "name": "updated",
              "type": "uint256"
            }
          ],
          "internalType": "struct Request.RequestStruct[]",
          "name": "",
          "type": "tuple[]"
        }
      ],
      "payable": false,
      "stateMutability": "view",
      "type": "function"
    },
    {
      "constant": true,
      "inputs": [],
      "name": "getAllUserRequest",
      "outputs": [
        {
          "components": [
            {
              "internalType": "uint256",
              "name": "Id",
              "type": "uint256"
            },
            {
              "internalType": "string",
              "name": "Name",
              "type": "string"
            },
            {
              "internalType": "string",
              "name": "location",
              "type": "string"
            },
            {
              "internalType": "string",
              "name": "contactInformation",
              "type": "string"
            },
            {
              "internalType": "string",
              "name": "Country",
              "type": "string"
            },
            {
              "internalType": "string",
              "name": "City",
              "type": "string"
            },
            {
              "internalType": "string",
              "name": "BloodRequired",
              "type": "string"
            },
            {
              "internalType": "string",
              "name": "Notes",
              "type": "string"
            },
            {
              "internalType": "enum Request.Available",
              "name": "available",
              "type": "uint8"
            },
            {
              "internalType": "address",
              "name": "author",
              "type": "address"
            },
            {
              "internalType": "uint256",
              "name": "created",
              "type": "uint256"
            },
            {
              "internalType": "uint256",
              "name": "updated",
              "type": "uint256"
            }
          ],
          "internalType": "struct Request.RequestStruct[]",
          "name": "",
          "type": "tuple[]"
        }
      ],
      "payable": false,
      "stateMutability": "view",
      "type": "function"
    }
  ],
  "bytecode": "0x608060405260006001556000600255600060035534801561001f57600080fd5b50600080546001600160a01b031916331790556121c5806100416000396000f3fe608060405234801561001057600080fd5b50600436106100935760003560e01c80636eebc5f3116100665780636eebc5f3146100f15780638da5cb5b14610106578063aad6a8bf1461011b578063eebe0ba31461012e578063f69131ef1461013657610093565b806311b0315d1461009857806330dfd996146100c15780633c2d85cf146100c9578063515c5320146100e9575b600080fd5b6100ab6100a6366004611b65565b610149565b6040516100b89190612079565b60405180910390f35b6100ab61015b565b6100dc6100d7366004611bcc565b610161565b6040516100b89190611feb565b6100ab610531565b6100f9610537565b6040516100b89190611fda565b61010e610af0565b6040516100b89190611fcc565b6100dc610129366004611b8b565b610aff565b6100f9611449565b61010e610144366004611bcc565b611923565b60056020526000908152604090205481565b60025481565b6000818152600460205260408120546001600160a01b031633146101a05760405162461bcd60e51b815260040161019790612059565b60405180910390fd5b60005b6006548110156104c15782600682815481106101bb57fe5b90600052602060002090600b02016000015414156104af576001600682815481106101e257fe5b600091825260209091206008600b9092020101805460ff19166001838181111561020857fe5b0217905550426006828154811061021b57fe5b90600052602060002090600b0201600a018190555060076006828154811061023f57fe5b600091825260208083208454600180820180885596865292909420600b9384029091018054939094020191825582810180546102929284810192916002600019928216156101000292909201160461193e565b50600282810180546102b792848101929160001961010060018316150201160461193e565b50600382018160030190805460018160011615610100020316600290046102df92919061193e565b506004820181600401908054600181600116156101000203166002900461030792919061193e565b506005820181600501908054600181600116156101000203166002900461032f92919061193e565b506006820181600601908054600181600116156101000203166002900461035792919061193e565b506007820181600701908054600181600116156101000203166002900461037f92919061193e565b50600882810154908201805460ff9092169160ff1916600183818111156103a257fe5b02179055506008828101549082018054610100600160a81b031916610100928390046001600160a01b031690920291909117905560098083015490820155600a918201549101555060068054829081106103f857fe5b600091825260208220600b909102018181559061041860018301826119c3565b6104266002830160006119c3565b6104346003830160006119c3565b6104426004830160006119c3565b6104506005830160006119c3565b61045e6006830160006119c3565b61046c6007830160006119c3565b506008810180546001600160a81b0319169055600060098201819055600a90910181905581815260046020526040902080546001600160a01b03191690556104b9565b600091505061052c565b6001016101a3565b5033600081815260056020526040908190208054600019908101909155600280549091019055600380546001019055517fec8fa3e7159d1e46f4c19dc3189e9f303504880695258f1218e7ede457812f549061052090859042906120c2565b60405180910390a25060015b919050565b60035481565b60606000805b60065481101561059557336001600160a01b03166006828154811061055e57fe5b60009182526020909120600b909102016008015461010090046001600160a01b0316141561058d576001909101905b60010161053d565b506060816040519080825280602002602001820160405280156105d257816020015b6105bf611a0a565b8152602001906001900390816105b75790505b5090506000805b600654811015610ae657336001600160a01b0316600682815481106105fa57fe5b60009182526020909120600b909102016008015461010090046001600160a01b03161415610ade576006818154811061062f57fe5b90600052602060002090600b02016040518061018001604052908160008201548152602001600182018054600181600116156101000203166002900480601f0160208091040260200160405190810160405280929190818152602001828054600181600116156101000203166002900480156106ec5780601f106106c1576101008083540402835291602001916106ec565b820191906000526020600020905b8154815290600101906020018083116106cf57829003601f168201915b5050509183525050600282810180546040805160206001841615610100026000190190931694909404601f8101839004830285018301909152808452938101939083018282801561077e5780601f106107535761010080835404028352916020019161077e565b820191906000526020600020905b81548152906001019060200180831161076157829003601f168201915b505050918352505060038201805460408051602060026001851615610100026000190190941693909304601f81018490048402820184019092528181529382019392918301828280156108125780601f106107e757610100808354040283529160200191610812565b820191906000526020600020905b8154815290600101906020018083116107f557829003601f168201915b505050918352505060048201805460408051602060026001851615610100026000190190941693909304601f81018490048402820184019092528181529382019392918301828280156108a65780601f1061087b576101008083540402835291602001916108a6565b820191906000526020600020905b81548152906001019060200180831161088957829003601f168201915b505050918352505060058201805460408051602060026001851615610100026000190190941693909304601f810184900484028201840190925281815293820193929183018282801561093a5780601f1061090f5761010080835404028352916020019161093a565b820191906000526020600020905b81548152906001019060200180831161091d57829003601f168201915b505050918352505060068201805460408051602060026001851615610100026000190190941693909304601f81018490048402820184019092528181529382019392918301828280156109ce5780601f106109a3576101008083540402835291602001916109ce565b820191906000526020600020905b8154815290600101906020018083116109b157829003601f168201915b505050918352505060078201805460408051602060026001851615610100026000190190941693909304601f8101849004840282018401909252818152938201939291830182828015610a625780601f10610a3757610100808354040283529160200191610a62565b820191906000526020600020905b815481529060010190602001808311610a4557829003601f168201915b5050509183525050600882015460209091019060ff166001811115610a8357fe5b6001811115610a8e57fe5b8152600882015461010090046001600160a01b0316602082015260098201546040820152600a909101546060909101528351849084908110610acc57fe5b60209081029190910101526001909101905b6001016105d9565b5090925050505b90565b6000546001600160a01b031681565b60008083836000818110610b0f57fe5b602002820190508035601e1936849003018112610b2b57600080fd5b909101602081019150356001600160401b03811115610b4957600080fd5b36819003821315610b5957600080fd5b905011610b785760405162461bcd60e51b815260040161019790612069565b600083836001818110610b8757fe5b602002820190508035601e1936849003018112610ba357600080fd5b909101602081019150356001600160401b03811115610bc157600080fd5b36819003821315610bd157600080fd5b905011610bf05760405162461bcd60e51b815260040161019790611ff9565b600083836002818110610bff57fe5b602002820190508035601e1936849003018112610c1b57600080fd5b909101602081019150356001600160401b03811115610c3957600080fd5b36819003821315610c4957600080fd5b905011610c685760405162461bcd60e51b815260040161019790612049565b600083836003818110610c7757fe5b602002820190508035601e1936849003018112610c9357600080fd5b909101602081019150356001600160401b03811115610cb157600080fd5b36819003821315610cc157600080fd5b905011610ce05760405162461bcd60e51b815260040161019790612039565b600083836004818110610cef57fe5b602002820190508035601e1936849003018112610d0b57600080fd5b909101602081019150356001600160401b03811115610d2957600080fd5b36819003821315610d3957600080fd5b905011610d585760405162461bcd60e51b815260040161019790612029565b600083836005818110610d6757fe5b602002820190508035601e1936849003018112610d8357600080fd5b909101602081019150356001600160401b03811115610da157600080fd5b36819003821315610db157600080fd5b905011610dd05760405162461bcd60e51b815260040161019790612009565b600083836006818110610ddf57fe5b602002820190508035601e1936849003018112610dfb57600080fd5b909101602081019150356001600160401b03811115610e1957600080fd5b36819003821315610e2957600080fd5b905011610e485760405162461bcd60e51b815260040161019790612019565b600180548101808255600090815260046020908152604080832080546001600160a01b03191633908117909155835260058252808320805485019055600280548501905580516101808101909152835480850190945592835260069291908201908690869081610eb457fe5b602002820190508035601e1936849003018112610ed057600080fd5b909101602081019150356001600160401b03811115610eee57600080fd5b36819003821315610efe57600080fd5b8080601f01602080910402602001604051908101604052809392919081815260200183838082843760009201919091525050509082525060200185856001818110610f4557fe5b602002820190508035601e1936849003018112610f6157600080fd5b909101602081019150356001600160401b03811115610f7f57600080fd5b36819003821315610f8f57600080fd5b8080601f01602080910402602001604051908101604052809392919081815260200183838082843760009201919091525050509082525060200185856002818110610fd657fe5b602002820190508035601e1936849003018112610ff257600080fd5b909101602081019150356001600160401b0381111561101057600080fd5b3681900382131561102057600080fd5b8080601f0160208091040260200160405190810160405280939291908181526020018383808284376000920191909152505050908252506020018585600381811061106757fe5b602002820190508035601e193684900301811261108357600080fd5b909101602081019150356001600160401b038111156110a157600080fd5b368190038213156110b157600080fd5b8080601f016020809104026020016040519081016040528093929190818152602001838380828437600092019190915250505090825250602001858560048181106110f857fe5b602002820190508035601e193684900301811261111457600080fd5b909101602081019150356001600160401b0381111561113257600080fd5b3681900382131561114257600080fd5b8080601f0160208091040260200160405190810160405280939291908181526020018383808284376000920191909152505050908252506020018585600581811061118957fe5b602002820190508035601e19368490030181126111a557600080fd5b909101602081019150356001600160401b038111156111c357600080fd5b368190038213156111d357600080fd5b8080601f0160208091040260200160405190810160405280939291908181526020018383808284376000920191909152505050908252506020018585600681811061121a57fe5b602002820190508035601e193684900301811261123657600080fd5b909101602081019150356001600160401b0381111561125457600080fd5b3681900382131561126457600080fd5b8080601f01602080910402602001604051908101604052809392919081815260200183838082843760009201829052509385525050506020808301829052336040840152426060840181905260809093019290925283546001808201808755958352918390208451600b9092020190815583830151805191936112ec93850192910190611a7f565b5060408201518051611308916002840191602090910190611a7f565b5060608201518051611324916003840191602090910190611a7f565b5060808201518051611340916004840191602090910190611a7f565b5060a0820151805161135c916005840191602090910190611a7f565b5060c08201518051611378916006840191602090910190611a7f565b5060e08201518051611394916007840191602090910190611a7f565b5061010082015160088201805460ff1916600183818111156113b257fe5b02179055506101208201516008820180546001600160a01b0390921661010002610100600160a81b0319909216919091179055610140820151600982015561016090910151600a909101555060015460405133917f7e09e262ba9b5b6d1f2cbcc8502a86922bfb5d348003a7891538f9d43fc89abf9161143791906000904290612087565b60405180910390a25060015b92915050565b60606006805480602002602001604051908101604052809291908181526020016000905b8282101561191a57838290600052602060002090600b02016040518061018001604052908160008201548152602001600182018054600181600116156101000203166002900480601f0160208091040260200160405190810160405280929190818152602001828054600181600116156101000203166002900480156115345780601f1061150957610100808354040283529160200191611534565b820191906000526020600020905b81548152906001019060200180831161151757829003601f168201915b5050509183525050600282810180546040805160206001841615610100026000190190931694909404601f810183900483028501830190915280845293810193908301828280156115c65780601f1061159b576101008083540402835291602001916115c6565b820191906000526020600020905b8154815290600101906020018083116115a957829003601f168201915b505050918352505060038201805460408051602060026001851615610100026000190190941693909304601f810184900484028201840190925281815293820193929183018282801561165a5780601f1061162f5761010080835404028352916020019161165a565b820191906000526020600020905b81548152906001019060200180831161163d57829003601f168201915b505050918352505060048201805460408051602060026001851615610100026000190190941693909304601f81018490048402820184019092528181529382019392918301828280156116ee5780601f106116c3576101008083540402835291602001916116ee565b820191906000526020600020905b8154815290600101906020018083116116d157829003601f168201915b505050918352505060058201805460408051602060026001851615610100026000190190941693909304601f81018490048402820184019092528181529382019392918301828280156117825780601f1061175757610100808354040283529160200191611782565b820191906000526020600020905b81548152906001019060200180831161176557829003601f168201915b505050918352505060068201805460408051602060026001851615610100026000190190941693909304601f81018490048402820184019092528181529382019392918301828280156118165780601f106117eb57610100808354040283529160200191611816565b820191906000526020600020905b8154815290600101906020018083116117f957829003601f168201915b505050918352505060078201805460408051602060026001851615610100026000190190941693909304601f81018490048402820184019092528181529382019392918301828280156118aa5780601f1061187f576101008083540402835291602001916118aa565b820191906000526020600020905b81548152906001019060200180831161188d57829003601f168201915b5050509183525050600882015460209091019060ff1660018111156118cb57fe5b60018111156118d657fe5b8152600882015461010090046001600160a01b031660208083019190915260098301546040830152600a90920154606090910152908252600192909201910161146d565b50505050905090565b6004602052600090815260409020546001600160a01b031681565b828054600181600116156101000203166002900490600052602060002090601f016020900481019282601f1061197757805485556119b3565b828001600101855582156119b357600052602060002091601f016020900482015b828111156119b3578254825591600101919060010190611998565b506119bf929150611aed565b5090565b50805460018160011615610100020316600290046000825580601f106119e95750611a07565b601f016020900490600052602060002090810190611a079190611aed565b50565b604051806101800160405280600081526020016060815260200160608152602001606081526020016060815260200160608152602001606081526020016060815260200160006001811115611a5b57fe5b815260200160006001600160a01b0316815260200160008152602001600081525090565b828054600181600116156101000203166002900490600052602060002090601f016020900481019282601f10611ac057805160ff19168380011785556119b3565b828001600101855582156119b3579182015b828111156119b3578251825591602001919060010190611ad2565b610aed91905b808211156119bf5760008155600101611af3565b803561144381612165565b60008083601f840112611b2457600080fd5b5081356001600160401b03811115611b3b57600080fd5b602083019150836020820283011115611b5357600080fd5b9250929050565b803561144381612179565b600060208284031215611b7757600080fd5b6000611b838484611b07565b949350505050565b60008060208385031215611b9e57600080fd5b82356001600160401b03811115611bb457600080fd5b611bc085828601611b12565b92509250509250929050565b600060208284031215611bde57600080fd5b6000611b838484611b5a565b6000611bf68383611e9c565b9392505050565b611c06816120f0565b82525050565b6000611c17826120e3565b611c2181856120e7565b935083602082028501611c33856120dd565b8060005b85811015611c6d5784840389528151611c508582611bea565b9450611c5b836120dd565b60209a909a0199925050600101611c37565b5091979650505050505050565b611c06816120fb565b611c0681612116565b6000611c97826120e3565b611ca181856120e7565b9350611cb1818560208601612121565b611cba81612151565b9093019392505050565b6000611cd16018836120e7565b7f6c6f636174696f6e2063616e6e6f7420626520656d7074790000000000000000815260200192915050565b6000611d0a601a836120e7565b7f426c6f6f6447726f75702063616e6e6f7420626520656d707479000000000000815260200192915050565b6000611d436015836120e7565b744e6f7465732063616e6e6f7420626520656d70747960581b815260200192915050565b6000611d746014836120e7565b73636974792063616e6e6f7420626520656d70747960601b815260200192915050565b6000611da4600d836120e7565b6c111bdb985c8810d49150551151609a1b815260200192915050565b6000611dcd6017836120e7565b7f636f756e7472792063616e6e6f7420626520656d707479000000000000000000815260200192915050565b6000611e066022836120e7565b7f636f6e74616374496e666f726d6174696f6e2063616e6e6f7420626520656d70815261747960f01b602082015260400192915050565b6000611e4a6013836120e7565b72556e617574686f72697a656420656e7469747960681b815260200192915050565b6000611e796014836120e7565b736e616d652063616e6e6f7420626520656d70747960601b815260200192915050565b8051600090610180840190611eb18582611fc3565b5060208301518482036020860152611ec98282611c8c565b91505060408301518482036040860152611ee38282611c8c565b91505060608301518482036060860152611efd8282611c8c565b91505060808301518482036080860152611f178282611c8c565b91505060a083015184820360a0860152611f318282611c8c565b91505060c083015184820360c0860152611f4b8282611c8c565b91505060e083015184820360e0860152611f658282611c8c565b915050610100830151611f7c610100860182611c83565b50610120830151611f91610120860182611bfd565b50610140830151611fa6610140860182611fc3565b50610160830151611fbb610160860182611fc3565b509392505050565b611c0681610aed565b602081016114438284611bfd565b60208082528101611bf68184611c0c565b602081016114438284611c7a565b6020808252810161144381611cc4565b6020808252810161144381611cfd565b6020808252810161144381611d36565b6020808252810161144381611d67565b6020808252810161144381611dc0565b6020808252810161144381611df9565b6020808252810161144381611e3d565b6020808252810161144381611e6c565b602081016114438284611fc3565b608081016120958286611fc3565b81810360208301526120a681611d97565b90506120b56040830185611c83565b611b836060830184611fc3565b604081016120d08285611fc3565b611bf66020830184611fc3565b60200190565b5190565b90815260200190565b60006114438261210a565b151590565b8061052c8161215b565b6001600160a01b031690565b600061144382612100565b60005b8381101561213c578181015183820152602001612124565b8381111561214b576000848401525b50505050565b601f01601f191690565b60028110611a0757fe5b61216e816120f0565b8114611a0757600080fd5b61216e81610aed56fea365627a7a72315820c939549e66d2a9d757e25252fe220fdcb124f58d21f541260b2d587d2436c32e6c6578706572696d656e74616cf564736f6c63430005100040",
  "source": "pragma solidity >=0.4.22 <0.9.0;\r\npragma experimental ABIEncoderV2;\r\n\r\ncontract Request {\r\n    address public owner;\r\n    uint256 private RequestCounter = 0;\r\n    uint256 public activeRequestCounter = 0;\r\n    uint256 public inactiveRequestCounter = 0;\r\n\r\n    constructor() public {\r\n        owner = msg.sender;\r\n    }\r\n\r\n    //MapOfRequest\r\n    mapping(uint256 => address) public RequestOf;\r\n    mapping(address => uint256) public RequestPost;\r\n\r\n    //Enum\r\n    enum Available {\r\n        NO,\r\n        YES\r\n    }\r\n\r\n    //RequestStruct\r\n    struct RequestStruct {\r\n        uint256 Id;\r\n        string Name;\r\n        string location;\r\n        string contactInformation;\r\n        string Country;\r\n        string City;\r\n        string BloodRequired;\r\n        string Notes;\r\n        Available available;\r\n        address author;\r\n        uint256 created;\r\n        uint256 updated;\r\n    }\r\n\r\n    RequestStruct[] allactiveRequest;\r\n    RequestStruct[] allInactiveRequest;\r\n\r\n    //Events\r\n    event createRequest(\r\n        uint256 postId,\r\n        string actionType,\r\n        Available available,\r\n        address indexed executor,\r\n        uint256 created\r\n    );\r\n\r\n    event UpdateRequestStatus(\r\n        uint256 postId,\r\n        address indexed executor,\r\n        uint256 created\r\n    );\r\n\r\n    //Modifier\r\n    modifier ownerOnly() {\r\n        require(msg.sender == owner, \"Owner reserved only\");\r\n        _;\r\n    }\r\n\r\n    //CreateDonarRequest\r\n    function createBloodRequest(string[] calldata data)\r\n        external\r\n        returns (bool)\r\n    {\r\n        require(bytes(data[0]).length > 0, \"name cannot be empty\");\r\n        require(bytes(data[1]).length > 0, \"location cannot be empty\");\r\n        require(\r\n            bytes(data[2]).length > 0,\r\n            \"contactInformation cannot be empty\"\r\n        );\r\n        require(bytes(data[3]).length > 0, \"country cannot be empty\");\r\n        require(bytes(data[4]).length > 0, \"city cannot be empty\");\r\n        require(bytes(data[5]).length > 0, \"BloodGroup cannot be empty\");\r\n        require(bytes(data[6]).length > 0, \"Notes cannot be empty\");\r\n\r\n        RequestCounter++;\r\n        RequestOf[RequestCounter] = msg.sender;\r\n        RequestPost[msg.sender]++;\r\n        activeRequestCounter++;\r\n\r\n        allactiveRequest.push(\r\n            RequestStruct(\r\n                RequestCounter++,\r\n                data[0],\r\n                data[1],\r\n                data[2],\r\n                data[3],\r\n                data[4],\r\n                data[5],\r\n                data[6],\r\n                Available.NO,\r\n                msg.sender,\r\n                block.timestamp,\r\n                block.timestamp\r\n            )\r\n        );\r\n\r\n        emit createRequest(\r\n            RequestCounter,\r\n            \"Donar CREATED\",\r\n            Available.NO,\r\n            msg.sender,\r\n            block.timestamp\r\n        );\r\n\r\n        return true;\r\n    }\r\n\r\n    function updateRequestStatus(uint256 Id) external returns (bool) {\r\n        require(RequestOf[Id] == msg.sender, \"Unauthorized entity\");\r\n        for (uint256 i = 0; i < allactiveRequest.length; i++) {\r\n            if (allactiveRequest[i].Id == Id) {\r\n                allactiveRequest[i].available = Available.YES;\r\n                allactiveRequest[i].updated = block.timestamp;\r\n                allInactiveRequest.push(allactiveRequest[i]);\r\n                delete allactiveRequest[i];\r\n                delete RequestOf[i];\r\n            } else {\r\n                return false;\r\n            }\r\n        }\r\n        RequestPost[msg.sender]--;\r\n        activeRequestCounter--;\r\n        inactiveRequestCounter++;\r\n        emit UpdateRequestStatus(Id, msg.sender, block.timestamp);\r\n        return true;\r\n    }\r\n\r\n    function getAllBloodRequest()\r\n        external\r\n        view\r\n        returns (RequestStruct[] memory)\r\n    {\r\n        return allactiveRequest;\r\n    }\r\n\r\n    function getAllUserRequest()\r\n        external\r\n        view\r\n        returns (RequestStruct[] memory)\r\n    {\r\n        uint256 resultCount;\r\n        for (uint256 i = 0; i < allactiveRequest.length; i++) {\r\n            if (allactiveRequest[i].author == msg.sender) {\r\n                resultCount++;\r\n            }\r\n        }\r\n        RequestStruct[] memory results = new RequestStruct[](resultCount);\r\n        uint256 j;\r\n\r\n        for (uint256 i = 0; i < allactiveRequest.length; i++) {\r\n            if (allactiveRequest[i].author == msg.sender) {\r\n                results[j] = allactiveRequest[i];\r\n                j++;\r\n            }\r\n        }\r\n\r\n        return results;\r\n    }\r\n}\r\n",
  "sourcePath": "C:\\WorkSpace\\hackathon\\Donark.Web3\\contracts\\Request.sol",
  "compiler": {
    "name": "solc",
    "version": "0.5.16+commit.9c3226ce.Emscripten.clang"
  },
  "schemaVersion": "3.4.8",
  "updatedAt": "2022-08-20T07:42:50.490Z",
  "networkType": "ethereum",
  "devdoc": {
    "methods": {}
  },
  "userdoc": {
    "methods": {}
  }
}